:100000000C9434000C943E000C943E000C943E0082
:100010000C943E000C943E000C943E000C943E0068
:100020000C943E000C943E000C943E000C943E0058
:100030000C943E000C943E000C943E000C943E0048
:100040000C943E000C943E000C943E000C943E0038
:100050000C943E000C943E000C943E000C943E0028
:100060000C943E000C943E0011241FBECFEFD8E04C
:10007000DEBFCDBF0E9440000C9460000C940000D5
:1000800039988AB18FEF8AB980917A008768809316
:100090007A0080917C00816680937C0080917A0058
:1000A000806480937A0080917A00806480937A00E3
:1000B00080917A0084FFFCCF809179008BB9F3CFD7
:0400C000F894FFCFE2
:00000001FF
