:100000000C9434000C943E000C943E000C943E0082
:100010000C943E000C943E000C943E000C943E0068
:100020000C943E000C943E000C943E000C943E0058
:100030000C943E000C943E000C943E000C943E0048
:100040000C943E000C943E000C943E000C943E0038
:100050000C943E000C943E000C943E000C943E0028
:100060000C943E000C943E0011241FBECFEFD8E04C
:10007000DEBFCDBF0E947A000C9495000C94000066
:10008000E1ECF0E080818061808380818860808302
:10009000A2ECB0E08C918F7C8C938C91877F8C93B9
:1000A0008C9186608C9380818B7F808387E690E043
:1000B0009093C5008093C40008959091C00095FF6F
:1000C000FCCF8093C60008958091C00087FFFCCFCD
:1000D0008091C6000895F999FECF92BD81BD60BDA3
:1000E000FA9AF99A0895F999FECF92BD81BDF89ACE
:1000F00080B50895CF93DF930E9440000E94640072
:10010000C0E0D0E08D3041F0682FCE010E946B003E
:100110000E9464002196F6CF6DE0CE010E946B0034
:0E01200080E090E0DF91CF910895F894FFCF3A
:00000001FF
