:100000000C9434000C943E000C943E000C943E0082
:100010000C943E000C943E000C943E000C943E0068
:100020000C943E000C943E000C943E000C943E0058
:100030000C943E000C9440000C943E000C943E0046
:100040000C943E000C943E000C943E000C943E0038
:100050000C943E000C943E000C943E000C943E0028
:100060000C943E000C943E0011241FBECFEFD8E04C
:10007000DEBFCDBF0E9463000C94B7000C9400005B
:100080001F920F920FB60F9211242F938F939F936D
:1000900095B180E2892785B98CED9BE0909385002E
:1000A000809384002FEF80E792E0215080409040C1
:1000B000E1F700C000009F918F912F910F900FBE2C
:1000C0000F901F9018958FEF84B9789480916F00EE
:1000D000816080936F008CED9BE09093850080930E
:1000E00084001092800084E08093810031E082E0FF
:1000F00094E028E035B94FEF53EC69E041505040AF
:100100006040E1F700C0000085B94FEF53EC69E0B3
:10011000415050406040E1F700C0000095B94FEFFA
:1001200053EC69E0415050406040E1F700C00000EE
:1001300025B94FEF53EC69E0415050406040E1F782
:1001400000C0000095B94FEF53EC69E041505040BA
:100150006040E1F700C0000085B94FEF53EC69E063
:10016000415050406040E1F700C00000C3CFF89418
:02017000FFCFBF
:00000001FF
