:100000000C9434000C943E000C943E000C943E0082
:100010000C943E000C943E000C943E000C943E0068
:100020000C943E000C943E000C943E000C943E0058
:100030000C943E000C9440000C943E000C943E0046
:100040000C943E000C943E000C943E000C943E0038
:100050000C943E000C943E000C943E000C943E0028
:100060000C943E000C943E0011241FBECFEFD8E04C
:10007000DEBFCDBF0E9463000C94B9000C94000059
:100080001F920F920FB60F9211242F938F939F936D
:1000900095B180E2892785B987EF92EC909385002E
:1000A000809384002FEF80E792E0215080409040C1
:1000B000E1F700C000009F918F912F910F900FBE2C
:1000C0000F901F901895259A84B18F6084B987EF9F
:1000D00092EC90938500809384001092800085E0DC
:1000E0008093810080916F00816080936F0078948D
:1000F00031E082E094E028E035B94FEF50E762E06C
:10010000415050406040E1F700C0000085B94FEF1A
:1001100050E762E0415050406040E1F700C000000D
:1001200095B94FEF50E762E0415050406040E1F731
:1001300000C0000025B94FEF50E762E04150504049
:100140006040E1F700C0000095B94FEF50E762E072
:10015000415050406040E1F700C0000085B94FEFCA
:1001600050E762E0415050406040E1F700C00000BD
:06017000C3CFF894FFCF9D
:00000001FF
