:100000000C9434000C9446000C9446000C9446006A
:100010000C9446000C9446000C9446000C94460048
:100020000C9446000C9446000C9446000C94460038
:100030000C9446000C9465000C9446000C94460009
:100040000C9448000C9446000C9446000C94460016
:100050000C9446000C9446000C9446000C94460008
:100060000C9446000C94460011241FBECFEFD8E03C
:10007000DEBFCDBF21E0A0E0B1E001C01D92A13004
:10008000B207E1F70E947D000C9496000C940000EA
:100090001F920F920FB60F9211248F939F9380910E
:1000A00000018F5F80930001853031F495B180E2CB
:1000B000892785B91092000184E686BD9F918F91B2
:1000C0000F900FBE0F901F9018951F920F920FB6B2
:1000D0000F9211248F939F9395B180E1892785B961
:1000E0008EEE95E890938500809384009F918F9188
:1000F0000F900FBE0F901F9018958FEF84B984E674
:1001000086BD14BC85E085BD8EEE95E89093850094
:10011000809384001092800084E08093810081E0CD
:1001200080936F0080936E007894FFCFF894FFCF98
:00000001FF
