:100000000C9434000C9446000C9446000C9446006A
:100010000C9446000C9446000C9446000C94460048
:100020000C9446000C9446000C9446000C94460038
:100030000C9446000C946B000C9446000C94460003
:100040000C9448000C9446000C9446000C94460016
:100050000C9446000C9446000C9446000C94460008
:100060000C9446000C94460011241FBECFEFD8E03C
:10007000DEBFCDBF21E0A0E0B1E001C01D92A23003
:10008000B207E1F70E9483000C94A0000C940000DA
:100090001F920F920FB60F9211248F939F9383E8B4
:1000A00086BD80910001909101010196909301011C
:1000B00080930001499741F495B180E2892785B981
:1000C00010920101109200019F918F910F900FBE2D
:1000D0000F901F9018951F920F920FB60F92112438
:1000E0008F939F9395B188E0892785B98EEE95E827
:1000F00090938500809384009F918F910F900FBE05
:100100000F901F90189588E284B983E886BD8EEE23
:1001100095E8909385008093840014BC84E085BDAD
:10012000109280008093810080916E0081608093A6
:100130006E0080916F00816080936F007894FFCF94
:04014000F894FFCF61
:00000001FF
