:100000000C9434000C9449000C9449000C94490061
:100010000C9449000C9449000C9449000C9449003C
:100020000C9449000C9449000C9449000C9449002C
:100030000C9449000C9449000C9449000C9449001C
:100040000C9449000C9449000C9449000C9449000C
:100050000C9449000C9449000C9449000C944900FC
:100060000C9449000C94490011241FBECFEFD8E036
:10007000DEBFCDBF11E0A0E0B1E0E2E2F1E002C0FE
:1000800005900D92A232B107D9F70E9482000C941C
:100090008F000C940000E1ECF0E0808180618083AF
:1000A000808188608083A2ECB0E08C918F7C8C93FF
:1000B0008C91877F8C938C9186608C9380818B7FD1
:1000C000808387E690E09093C5008093C4000895F4
:1000D0009091C00095FFFCCF8093C6000895809159
:1000E000C00087FFFCCF8091C6000895CF93DF93B7
:1000F000EC018991882319F00E946800FACFDF9102
:10010000CF9108950E944B0080E091E00E9476001C
:1001100082E191E00E94760080E090E00895F894FA
:02012000FFCF0F
:10012200436861746875726120452F31382F34300D
:1001320032005368616D6F6420452F31382F333997
:02014200370084
:00000001FF
