:100000000C9434000C943E000C943E000C943E0082
:100010000C943E000C943E000C943E000C943E0068
:100020000C943E000C943E000C943E000C943E0058
:100030000C943E000C943E000C943E000C943E0048
:100040000C943E000C943E000C943E000C943E0038
:100050000C943E000C943E000C943E000C943E0028
:100060000C943E000C943E0011241FBECFEFD8E04C
:10007000DEBFCDBF0E946B000C94D4000C94000036
:10008000E1ECF0E080818061808380818860808302
:10009000A2ECB0E08C918F7C8C938C91877F8C93B9
:1000A0008C9186608C9380818B7F808387E690E043
:1000B0009093C5008093C40008959091C00095FF6F
:1000C000FCCF8093C60008958091C00087FFFCCFCD
:1000D0008091C6000895CF93DF93CDB7DEB7C85E99
:1000E000D3400FB6F894DEBF0FBECDBF0E944000D4
:1000F0008AE1E82EF12C8E010F5F1F4F68010E94EC
:100100006400D6018D936D018D30C9F7F8018081AF
:100110008D3089F39FEB980F9A3148F4082E000C2C
:10012000990BCE97B7010E94AC008F5B0DC09FE981
:10013000980F9A3158F4082E000C990B8E5591099E
:10014000B7010E94AC008F59D8018C930F5F1F4FED
:1001500080810E945D00DACF97FB072E16F4009491
:1001600007D077FD09D00E94C00007FC05D03EF4FF
:10017000909581959F4F0895709561957F4F089553
:10018000AA1BBB1B51E107C0AA1FBB1FA617B707BD
:1001900010F0A61BB70B881F991F5A95A9F78095D9
:0C01A0009095BC01CD010895F894FFCFAC
:00000001FF
