:100000000C9434000C943E000C943E000C943E0082
:100010000C943E000C943E000C943E000C943E0068
:100020000C943E000C943E000C943E000C943E0058
:100030000C943E000C943E000C943E000C943E0048
:100040000C943E000C943E000C943E000C943E0038
:100050000C943E000C943E000C943E000C943E0028
:100060000C943E000C943E0011241FBECFEFD8E04C
:10007000DEBFCDBF0E9440000C9463000C940000D2
:10008000569A16BC84B5836084BD85B5877F85BDCF
:1000900084B5806884BD85B5836085BD80E087BDFB
:1000A000EFE3FCE93197F1F700C000008F5F8F3F6D
:1000B000B1F787BDEFE3FCE93197F1F700C000002D
:0A00C0008150B9F7EBCFF894FFCFA1
:00000001FF
