:100000000C9434000C943E000C943E000C943E0082
:100010000C943E000C943E000C943E000C943E0068
:100020000C943E000C943E000C943E000C943E0058
:100030000C943E000C943E000C943E000C943E0048
:100040000C943E000C943E000C943E000C943E0038
:100050000C943E000C943E000C943E000C943E0028
:100060000C943E000C943E0011241FBECFEFD8E04C
:10007000DEBFCDBF0E946C000C94AF000C9400005A
:10008000F999FECF92BD81BD60BDFA9AF99A0895A3
:10009000E1ECF0E0808180618083808188608083F2
:1000A000A2ECB0E08C918F7C8C938C91877F8C93A9
:1000B0008C9186608C9380818B7F808387E690E033
:1000C0009093C5008093C40008958091C00087FF7D
:1000D000FCCF8091C6000895CF92DF92EF92FF92FD
:1000E0000F931F93CF93DF93CDB7DEB7C85ED34096
:1000F0000FB6F894DEBF0FBECDBF87E690E00E943A
:100100004800CE0101967C018C016801CE18DF0801
:100110000E946500F80181938F018D30B1F700E0F6
:1001200010E00C151D0549F0F70161917F01C80130
:100130000E9440000F5F1F4FF4CF80E090E0C85155
:10014000DC4F0FB6F894DEBF0FBECDBFDF91CF916D
:100150001F910F91FF90EF90DF90CF900895F8944A
:02016000FFCFCF
:00000001FF
