:100000000C9434000C943E000C943E000C943E0082
:100010000C943E000C943E000C943E000C943E0068
:100020000C943E000C943E000C943E000C943E0058
:100030000C943E000C943E000C943E000C943E0048
:100040000C943E000C943E000C943E000C943E0038
:100050000C943E000C943E000C943E000C943E0028
:100060000C943E000C943E0011241FBECFEFD8E04C
:10007000DEBFCDBF0E946B000C94B5000C94000055
:10008000F999FECF92BD81BDF89A80B50895E1EC53
:10009000F0E0808180618083808188608083A2EC31
:1000A000B0E08C918F7C8C938C91877F8C938C911A
:1000B00086608C9380818B7F808387E690E090932D
:1000C000C5008093C40008959091C00095FFFCCFB7
:1000D0008093C6000895CF92DF92EF92FF920F9324
:1000E0001F93CF93DF93CDB7DEB7C85ED3400FB673
:1000F000F894DEBF0FBECDBF87E690E00E944700B8
:10010000CE0101967C016C0100E010E0F6018081D7
:100110008D3049F0C8010E944000F60181936F01C3
:100120000F5F1F4FF3CF6701C6018E199F0980171C
:10013000910734F4F60181916F010E946400F4CFBD
:100140008AE00E94640080E090E0C851DC4F0FB666
:10015000F894DEBF0FBECDBFDF91CF911F910F91FD
:0E016000FF90EF90DF90CF900895F894FFCFBE
:00000001FF
